:020000040800F2
:10000000002000202507000871070008531400088D
:1000100000000000000000000000000000000000E0
:100020000000000000000000000000007107000850
:1000300000000000000000007107000871070008C0
:1000400071070008710700087107000871070008B0
:1000500071070008E504000871070008710700082F
:100060007107000871070008710700087107000890
:100070007107000871070008710700087107000880
:1000800071070008710700080000000071070008F0
:10009000710700087107000871070008C90300080C
:1000A0007107000871070008710700087107000850
:1000B0007107000800000000710700080000000040
:1000C0005FF808F180B582B000AF7860144B1B7800
:1000D0005A1CD1B2124A11707A68D1B2114AD15465
:1000E0000F4B1B780F4A0021D1540D4B1B78013365
:1000F0000F2B05D87B680A2B02D07B68002B0CD114
:10010000074B00221A70074B0420191C002201F033
:1001100097F9031C002B00D0C046BD4602B080BD3D
:10012000400400203004002080B582B000AF021CE3
:10013000FB1D1A70FB1D1B78002B06D0074B074ACE
:10014000126801210A431A6005E0044B034A126851
:1001500001218A431A60BD4602B080BD00100240F2
:1001600080B584B000AF78600023FB60084B5B680B
:10017000FB60FB6803229343FB60FA687B681343D0
:10018000FB60034BFA685A60BD4604B080BDC046B0
:100190000010024080B582B000AF78600A1CFB1CE2
:1001A0001A70FB1C1B78002B06D0084B074A5169BC
:1001B0007A680A435A6106E0044B044A5269796836
:1001C000C9430A405A61BD4602B080BD00100240DA
:1001D00080B582B000AF78600A1CFB1C1A70FB1C53
:1001E0001B78002B06D0084B074AD1697A680A436E
:1001F000DA6106E0044B044AD2697968C9430A40CF
:10020000DA61BD4602B080BD0010024080B586B004
:1002100000AF021CFB1D1A700023FB6000237B61F2
:100220003B1C133300221A70FB1D1B785B09DBB2E9
:10023000FB60FB68002B03D1174B1B687B6110E050
:10024000FB68012B03D1144B1B6A7B6109E0FB683F
:10025000022B03D1104B5B6A7B6102E00E4B5B6BA0
:100260007B61FB1D1A781F231340FB60FB687A69D2
:10027000DA400123134004D03B1C133301221A70CF
:1002800003E03B1C133300221A703B1C13331B7812
:10029000181CBD4606B080BD0010024080B584B079
:1002A00002AF0A1CFB1D011C1970BB1D1A70454BC7
:1002B000181C0221002200F03BFE424B181C40217A
:1002C000002200F035FE3F4B181C0421002200F0F4
:1002D0002FFE3C4B181C2021002200F029FEC046B6
:1002E000384A80231B02101C191C00F087FE031CD7
:1002F000012BF5D0334A80235B04802189010091D2
:10030000101C3C21012200F02FFEC0462D4B181C72
:10031000022100F073FE031C002BF7D0294AFB1DBD
:100320001B78101C191C00F04FFEC046254B181CF2
:10033000802100F063FE031C002BF7D0214A8023AC
:100340009B0400210091101C3C21012200F00CFEB6
:10035000C0461C4B181C022100F050FE031C002B51
:10036000F7D0184ABB1D1B78101C191C00F02CFE7E
:10037000C046144B181C202100F040FE031C002B2B
:10038000F7D0104B181C202100F05EFE0D4B181CFE
:100390000221012200F0CCFD0A4B181C4021012251
:1003A00000F0C6FD074B181C0421012200F0C0FD1F
:1003B000044B181C2021012200F0BAFDBD4602B0FA
:1003C00080BDC0460054004090B583B002AF3E4BA4
:1003D000181C022100F044FE031C002B0AD03A4BEB
:1003E000181C022100F080FE374B181C032100F07E
:1003F000EBFD66E0344B181C402100F031FE031C7D
:10040000002B13D0304B181C402100F06DFE2E4AFB
:1004100080239B04902189010091101C3C2106221D
:1004200000F0A2FD294B00221A704AE0264B181C4E
:10043000042100F015FE031C002B14D0224B181CC5
:10044000042100F051FE214B1B785A1CD1B21F4AE7
:1004500011701C1C1C4B181C00F0C4FD031C1A1C42
:100460001B4B1A552DE0184B181C202100F0F8FDED
:10047000031C002B25D0144B181C202100F034FE47
:10048000134B1B781B029AB2114B5B7813439AB241
:10049000104B1A800E4B9B781B029AB20C4BDB78E8
:1004A00013439AB20C4B1A80094B1B791B029AB268
:1004B000074B5B7913439AB2084B1A80084B012211
:1004C0001A70BD4601B090BD0054004045040020A4
:1004D000480400205404002056040020600400203A
:1004E0004404002080B582B002AF012001F028F85A
:1004F000031C002B0FD0012001F042F8074B002213
:100500001A70074B802292010092181C3C21012294
:10051000002300F029FDBD4680BDC04644040020F4
:100520000054004080B500AF0120FFF7FDFDC0463C
:100530000120FFF76BFE031C002BF9D00020FFF712
:100540000FFE8023DB02181C0121FFF723FE80230E
:100550009B03181C0121FFF73BFE01200121FFF73F
:1005600037FE644BC0221A60624B02221A71614B43
:1005700001229A715F4B0122DA715E4B00225A719F
:100580005D4A5C4B101C191C00F070FE594B012297
:100590001A60584B00221A719023DA05554B101C33
:1005A000191C00F063FE544B181C0621012200F0B8
:1005B000F9FE514B181C0721012200F0F3FE4F4BAE
:1005C00000225A614D4B00229A614C4B802252010D
:1005D0005A604A4B0022DA60484B01221A61474BAD
:1005E000474A1A60474A454B101C191C00F01AFC78
:1005F000444B181C012100F07DFC424B181C0221C9
:1006000000F072FD3F4B181C402100F06DFD3D4B8A
:10061000181C042100F068FD3A4B181C202100F042
:1006200063FD384B181C0221012200F081FC354B80
:10063000181C4021012200F07BFC324B181C0421C5
:10064000012200F075FC2F4B181C2021012200F024
:100650006FFC2D4B17221A702B4B01225A702A4B1C
:1006600001229A70284B181C00F0DEFF00200021A8
:1006700000F092FF254B01221A60244B00221A71D0
:10068000224B0C225A71214B01229A711F4B181CCC
:1006900000F0EAFE1C4B05221A701B4B01225A7017
:1006A000194B01229A70184B181C00F0BDFF002056
:1006B0001821FFF7F3FD01208021FFF7EFFD022055
:1006C0000021FFF7EBFDC046114B1B78DBB2002B7E
:1006D000FAD0104B1B889BB219B20F4B1B889BB2F0
:1006E0001AB20E4B1B889BB21BB20D4800F03CFBAC
:1006F000C046E8E758040020000400486C040020CD
:100700000D0A002000540040500400206404002022
:1007100044040020540400206004002056040020FB
:10072000741700080C488546002103E00B4B5B580A
:10073000435004310A480B4B42189A42F6D30A4AF6
:1007400002E0002313600432084B9A42F9D300F010
:10075000D7FCFFF7E7FEFEE7002000203418000872
:100760000000002030040020300400208804002015
:10077000FEE7000080B582B000AF021CFB1D1A70BE
:10078000FB1D1B78181CFFF79DFCBD4602B080BD09
:1007900080B582B000AF78600A1CFB1C1A707B68C1
:1007A000FA1C12781A700123181CBD4602B080BDD5
:1007B00080B584B000AF786039600023FB600AE048
:1007C0007B685A1C7A603A68511C396012781A703A
:1007D000FB680133FB603B681B78002BF0D1FB68A2
:1007E000181CBD4604B080BD80B586B000AFF8606F
:1007F0007A603B603B1C0B330A1C1A7000237B6140
:100800007B68013B7B603B68092B13D93B68181C54
:100810000A2100F05FFF031CF8683A1C0B321178C4
:100820007A68FFF7E1FF031C7B617B69FA68D318E4
:10083000FB6014E010E0FA683B1C0B331B78101CC3
:10084000191CFFF7A5FFFB680133FB607B690133CF
:100850007B617B68013B7B607B68002BEBDC3B684A
:10086000181C0A2100F07AFF0B1CDBB23033DBB21C
:10087000FA68101C191CFFF78BFF031C7A69D31848
:100880007B617B69181CBD4606B080BD80B586B013
:1008900000AFF8607A603B603B1C0B330A1C1A7097
:1008A00000237B613B68002B03DA3B685B423B61C2
:1008B00001E03B683B617B68013B7B603B69092B46
:1008C00027D93B68002B10DA3B69181C0A2100F07D
:1008D00001FF031C5B42F8683A1C0B3211787A68FE
:1008E000FFF7D4FF031C7B610EE03B69181C0A2153
:1008F00000F0F0FE031CF8683A1C0B3211787A689D
:10090000FFF7C4FF031C7B617B69FA68D318FB60A7
:100910002AE03B68002B03DA7B68013B7B6011E037
:1009200010E0FA683B1C0B331B78101C191CFFF7F6
:100930002FFFFB680133FB607B6901337B617B68C0
:10094000013B7B607B68002BEBDC3B68002B0BDA08
:10095000FB68181C2D21FFF71BFF031C7A69D318B5
:100960007B61FB680133FB603B69181C0A2100F0C6
:10097000F5FE0B1CDBB23033DBB2FA68101C191C1D
:10098000FFF706FF031C7A69D3187B617B69181C8B
:10099000BD4606B080BDC04690B589B002AFF860D4
:1009A0007A601A1C3B1C0B3319703B1C0A331A70FB
:1009B00000237B617B68013B7B60BB6A1B0915D010
:1009C000BB6A1C09F8683B1C0B3319787A683B1C1E
:1009D0000A331B780094FFF7DFFF031C7A69D318F2
:1009E0007B617B69FA68D318FB6014E010E0FA6859
:1009F0003B1C0B331B78101C191CFFF7C9FEFB684E
:100A00000133FB607B6901337B617B68013B7B6069
:100A10007B68002BEBDCBA6A0F231340092B0CD840
:100A2000BB6ADAB20F231340DBB23033DBB2FA68B1
:100A3000101C191CFFF7ACFE1DE03B1C0A331B7891
:100A4000002B0CD0BB6ADAB20F231340DBB2373372
:100A5000DBB2FA68101C191CFFF79AFE0BE0BB6AA8
:100A6000DAB20F231340DBB25733DBB2FA68101C43
:100A7000191CFFF78DFE7B6901337B617B69181CB4
:100A8000BD4607B090BDC04680B58AB002AFF860E1
:100A9000B9607A603B600023BB6100237B61FB6827
:100AA000002B03D0FB6800221A70DEE0DDE07B68DB
:100AB0001B78252B0BD0FB685A1CFA607A68511CF6
:100AC000796012781A707B6901337B61CDE07B68B5
:100AD00001331B78252B0BD1FB685A1CFA602522A9
:100AE0001A707B6802337B607B6901337B61BCE0F9
:100AF0003B1C1F3320221A703B1C1E3300221A702D
:100B00007B6801337B607B681B78302B07D13B1CF3
:100B10001F3330221A707B6801337B6013E012E0D0
:100B20003B1C1E331B781A1C9200D318DB18DAB258
:100B30007B681B78D318DAB23B1C1E33303A1A702C
:100B40007B6801337B607B681B782F2B03D97B6824
:100B50001B78392BE4D93B1C1E331A787B69D318D8
:100B60001A1CBB689A4207D9BB68D9B27B69DAB252
:100B70003B1C1E338A1A1A707B681B78583B202B4B
:100B800065D89A00484BD3181B689F463B1C1E3300
:100B90001A783B68191D39601B68F868391C1F31C9
:100BA0000978FFF773FE031CBB6153E03B1C1E3347
:100BB0001A783B68191D39601B68F868391C1F31A9
:100BC0000978FFF711FE031CBB6143E03B1C1E3399
:100BD0001A783B68191D39601868F9683B1C1F3387
:100BE0001B780090081C191C0023FFF7D5FE031C7E
:100BF000BB612FE03B1C1E331A783B68191D39601E
:100C00001868F9683B1C1F331B780090081C191CDE
:100C10000123FFF7C1FE031CBB611BE03B681A1DEB
:100C20003A601B68FA68101C191CFFF7C1FD031C11
:100C3000BB610FE03B681A1D3A601B68DBB2FA68C3
:100C4000101C191CFFF7A4FD031CBB6102E001236B
:100C50005B4225E07B6801337B60BB69FA68D3188F
:100C6000FB607A69BB69D3187B617B681B78002BBA
:100C700004D07A69BB689A4200D218E77A69BB68E7
:100C80009A4203D2FB6800221A7008E0FB68013B1D
:100C9000FB60FB6800221A707B69013B7B617B690A
:100CA000181CBD4608B080BD8C17000880B584B004
:100CB00000AFF860B9607A60F968BA687B68081CB0
:100CC0006421FFF7E1FE031C181CBD4604B080BD83
:100CD00090B5A7B000AFF860B9607A603B1C1033E4
:100CE000144A13CA13C313CA13C313CA13C3391C38
:100CF0003431BA687B68081C111C1A1CFFF7D6FF38
:100D0000031C632B09DD0C4B1B68DB683A1C10329B
:100D1000101C191C00F060F8FEE73A1C3432FB6826
:100D2000101C191C00F058F8031C181CBD4627B0F5
:100D300090BDC046101800082804002080B582B07D
:100D400000AF78603960074B1B6899687A683B6828
:100D5000081C111C1A1CFFF7BBFF031C181CBD4606
:100D600002B080BD280400200FB480B582B000AF6F
:100D70003B1C14333B603A693B68101C191CFFF79D
:100D8000DDFF031C7B607B68181CBD4602B080BC85
:100D900008BC04B01847C04680B582B000AF786088
:100DA00039600C4B1B689A683B689A4205D0094B26
:100DB0001B68DA683B689A4206D17B68DBB2181C74
:100DC000FFF7D8FC7B6801E001235B42181CBD469D
:100DD00002B080BD2804002080B584B000AF7860E8
:100DE00039600023FB6013E07B681B781A1C3B68AA
:100DF000101C191CFFF7D0FF031C013302D1012383
:100E00005B420AE0FB680133FB607B6801337B6077
:100E10007B681B78002BE7D1FB68181CBD4604B02B
:100E200080BDC04680B584B000AF786039600023D3
:100E3000FB607B681B680122191C91430A1C7B68BC
:100E40001A607B681B68FB60FA68274B1340FB60E5
:100E50003B685A683B689B681B021343FA6813435C
:100E6000FB607B68FA681A603B681A681F4B1A407F
:100E70007B681A617B681B6801221A437B681A60D1
:100E80000023FB607B68FA689A607B68FA68DA6026
:100E90003B689A693B681B691343FB607B68FA688F
:100EA0009A607B689B68802212021A437B689A6072
:100EB0003B68DB68FB607B681A68FB681A437B68E9
:100EC0001A607B685B68FB60FA68094B1340FB6043
:100ED0003B685B69FA681343FB607B68FA685A6099
:100EE000BD4604B080BDC046FFE0CF00FFFFFFF06D
:100EF000FF7FFF0780B582B000AF78600A1CFB1C43
:100F00001A70FB1C1B78002B06D07B681B68012223
:100F10001A437B681A6007E07B681B680122191C72
:100F200091430A1C7B681A60BD4602B080BDC04672
:100F300080B584B000AFF860B960FB1D1A70FB1D6E
:100F40001B78002B06D0FB681A68BB681A43FB6845
:100F50001A6006E0FB681B68BA68D2431A40FB6857
:100F60001A60BD4604B080BD80B586B000AFF860A1
:100F70007B603B1C0A3319803B1C09331A70002329
:100F80007B61FB685B687B617A690E4B13407B6118
:100F90003B1C0A331B889B059A0D3B1C09331B78AD
:100FA0001904FF231B040B401A437B681A433B6A56
:100FB00013437A6913437B61FB687A695A60BD46C3
:100FC00006B080BD009800FC80B582B000AF7860AC
:100FD0000A1CFB1C1A70FB1C1A787B689A62BD46BF
:100FE00002B080BD80B582B000AF78607B685B6A7C
:100FF000DBB2181CBD4602B080BDC04680B584B0CF
:1010000000AF786039600023BB603B1C0F330022C7
:101010001A707B689B69BB60BB683A681340BB6011
:10102000BB68002B04D03B1C0F3301221A7003E075
:101030003B1C0F3300221A703B1C0F331B78181C0B
:10104000BD4604B080BDC04680B582B000AF7860B8
:1010500039607B683A68DA61BD4602B080BDC0463F
:1010600080B586B000AF786039600023FB603B1C20
:10107000173300221A7000233B613A68FC239B015E
:10108000134005D07B681A68802313403B610EE053
:101090003A68C023134005D07B681A684023134088
:1010A0003B6104E07B681B683A6813403B617B68E6
:1010B0009B69FB60FB683A681340FB60FB68002B90
:1010C00007D03B69002B04D03B1C173301221A7058
:1010D00003E03B1C173300221A703B1C17331B78AC
:1010E000181CBD4606B080BD80B582B000AF7860E8
:1010F00039607B683A68DA61BD4602B080BDC0469F
:1011000080B500AF1B4B1B4A126801210A431A60CD
:10111000184B184A5168184A0A405A60154B154A2C
:101120001168164A0A401A60124B124A1168144A92
:101130000A401A600F4B0F4A5168124A0A405A601F
:101140000C4B0C4AD26A0F218A43DA62094B094AD6
:10115000116B0D4A0A401A63064B064A526B012175
:101160008A435A63034B00229A6000F00FF8BD4691
:1011700080BDC046001002400CB8FFF8FFFFF6FE2D
:10118000FFFFFBFFFFFFC0FFACFEFFFF80B582B09B
:1011900000AF00237B6000233B60314B304A126874
:1011A000802149020A431A602D4B1A6880239B0252
:1011B00013403B607B6801337B603B68002B04D1AC
:1011C0007A68A023DB019A42EED1254B1A6880236E
:1011D0009B02134002D001233B6001E000233B60EF
:1011E0003B68012B38D11F4B11221A601C4B1C4A43
:1011F00052685A601A4B1A4A52685A60184B184A79
:101200005168194A0A405A60154B154A526888219C
:1012100049030A435A60124B114A1268802149045B
:101220000A431A60C0460E4B1A6880239B04134081
:10123000F9D00B4B0A4A526803218A435A60084B83
:10124000074A526802210A435A60C046044B5A6852
:101250000C231340082BF9D1BD4602B080BDC04617
:101260000010024000200240FFFFC0FF80B586B0A2
:1012700000AF7860396000237B6100233B6100236D
:10128000FB6000237B6185E07B690122101C984094
:10129000031C3B613B681B683A691340FB60FA68BA
:1012A0003B699A4273D13B681B79012B03D03B68A1
:1012B0001B79022B38D17B689B687A695200032125
:1012C000081C9040021CD2431A407B689A607B68DD
:1012D0009A683B685B79191C7B695B00081C984025
:1012E000031C1A437B689A607B689B889BB27A696F
:1012F00092B20121081C9040021C92B2D24392B2D9
:1013000013409AB27B689A807B689B889AB23B684C
:101310009B79191C7B699BB2081C9840031C9BB2EB
:1013200013439AB27B689A807B681B687A69520083
:101330000321081C9040021CD2431A407B681A60AB
:101340007B681A683B681B79191C7B695B00081C69
:101350009840031C1A437B681A607B68DB687A69D3
:1013600092B252000321081C9040021CD2431A4042
:101370007B68DA607B68DA683B68DB79191C7B691B
:101380005B00081C9840031C1A437B68DA607B6989
:1013900001337B617B690F2B00D875E7BD4606B032
:1013A00080BDC04690B585B000AF7860BB1C198089
:1013B0007B1C1A700023FB600023BB607B1C1A7827
:1013C000BB1C198807230B409B00111C99400B1C68
:1013D000FB60BB1C1B88DB089BB21A1CBB1C1B8858
:1013E000DB089BB2191C7B6808318900CB58B91CFB
:1013F00008880721014089000F20041C8C40211C13
:10140000C94319407B6808329200D150BB1C1B882D
:10141000DB089BB21A1C7B6808329200D258FB682A
:101420001343BB60BB1C1B88DB089BB21A1C7B6888
:1014300008329200B968D150BD4605B090BDC04693
:10144000ABBE01E000207047002A00D010600120F0
:10145000704706980188034A914202D104300690F1
:101460007047FEE7ABBE000080B584B000AF786087
:101470000023FB60314BFB607B689B79002B4DD0D8
:101480002E4B2E4A11687A681268D2430A401A60BD
:101490002A4B2A4A51687A681268D2430A405A6035
:1014A0007B681B79FA68D318FB60FB68FA681168DF
:1014B0007A6812680A431A60204B204A91687A6859
:1014C0001268D2430A409A601C4B1C4AD1687A6861
:1014D0001268D2430A40DA607B685B79102B0ED128
:1014E000164B164A91687A6812680A439A60134B41
:1014F000124AD1687A6812680A43DA601BE00F4B1F
:10150000FB607B685B79FA68D318FB60FB68FA685C
:1015100011687A6812680A431A600CE07B681B79CC
:10152000FA68D318FB60FB68FA6811687A68126879
:10153000D2430A401A60BD4604B080BD0004014099
:1015400080B584B000AF78603B1C0F3300221A7066
:101550000A4B5B697A68134004D03B1C0F330122AD
:101560001A7003E03B1C0F3300221A703B1C0F3330
:101570001B78181CBD4604B080BDC0460004014065
:1015800080B582B000AF7860024B7A685A61BD4680
:1015900002B080BD00040140B0B584B000AF0A1CA9
:1015A000FB1D011C1970BB1D1A700023FB60BB1DC5
:1015B0001A78032313409B000F22111C99400B1C27
:1015C000FB60184BBA1D12789208D2B21549B81DAB
:1015D00000788008C0B2023080004158F868C043EB
:1015E000014002329200D1500E4BBA1D127892087F
:1015F000D2B20C49B81D00788008C0B20230800019
:101600004058F91D0C78B91D0D7803212940890037
:10161000251C8D40291C014302329200D150BD4649
:1016200004B0B0BD0000014080B584B000AF786068
:101630000023FB607B689B78002B3CD0244B7A68AE
:1016400012789208D2B2C0329200D358FB607B6805
:101650001B781A1C03231340DB00FF22101C984048
:10166000031CDA43FB681340FB607B685B789A01DC
:10167000FF231A407B681B78191C03230B40DB00F7
:10168000111C99400B1CFA681343FB60104B7A68DD
:1016900012789208D2B2C0329200F968D1500C4B45
:1016A0007A681278111C1F220A400121081C904000
:1016B000021C1A6009E0064A7B681B78191C1F236C
:1016C0000B40012199408023D150BD4604B080BD1C
:1016D00000E100E0002934D00123002210B4884248
:1016E0002CD301242407A14204D2814202D2090151
:1016F0001B01F8E7E400A14204D2814202D2490072
:101700005B00F8E7884201D3401A1A434C08A04214
:1017100002D3001B5C0822438C08A04202D3001BAA
:101720009C082243CC08A04202D3001BDC082243C1
:10173000002803D01B0901D00909E3E7101C10BCE5
:101740007047002801D00020C04307B4024802A11E
:101750004018029003BDC046190000000029F0D0D7
:1017600003B5FFF7B9FF0EBC4243891A1847C046BC
:101770007047C046583A2025692C20593A202569DF
:101780002C205A3A2025690A00000000F40B0008BA
:101790004E0C00084E0C00084E0C00084E0C0008C1
:1017A0004E0C00084E0C00084E0C00084E0C0008B1
:1017B0004E0C00084E0C0008340C00088C0B00087E
:1017C0004E0C00084E0C00084E0C00084E0C000891
:1017D0008C0B00084E0C00084E0C00084E0C000844
:1017E0004E0C00084E0C00084E0C00084E0C000871
:1017F0004E0C00084E0C00081C0C00084E0C000893
:10180000AC0B00084E0C00084E0C0008CC0B000876
:10181000737464696F2E633A20696E6372656173D5
:1018200065204D41585F535452494E475F53495AC2
:04183000450A0D0058
:1018340000000000000000000100000000000000A3
:101844000000000000000000000000000000000094
:101854000000000000000000000000000000000084
:101864000000000000000000000000000000000074
:101874000000000000000000000000000000000064
:101C54000000000000000000000000200000000060
:0400000508000000EF
:00000001FF
